:020000040800F2
:102800000050002045500008B1370008B3370008D9
:10281000B5370008B7370008B937000800000000D6
:10282000000000000000000000000000BB370008AE
:10283000BD37000800000000BF370008C13700089E
:102840008D5000088D5000088D5000088D500008F4
:102850008D5000088D5000088D5000088D500008E4
:102860008D5000088D5000088D5000088D500008D4
:102870008D5000088D5000088D500008C9370008A1
:102880008D5000088D5000088D5000088D500008B4
:102890008D5000088D5000088D5000088D500008A4
:1028A0008D5000088D5000088D5000088D50000894
:1028B0008D5000088D5000088D5000088D50000884
:1028C0008D5000088D5000088D5000088D50000874
:1028D0008D5000088D5000088D5000088D50000864
:1028E0008D5000088D5000088D5000080000000039
:1028F00000000000000000000000000000000000D8
:0C29000000000000000000005FF808F17B
:10290C00EC46A0E8F05F4FF000007047B0E8F05FD5
:10291C00E546080008BF0120704700BF10F8012BE6
:10292C0011F8013B012A28BF9A42F7D0D01A704700
:10293C0000F1340191E838009C46A6464CF8045D41
:10294C0090E8FF0FE54600BD90EC210B704700BFEF
:10295C0080EC210B704700BF90EC200B704700BF40
:10296C0080EC200B704700BFD0EC200B704700BFF1
:10297C00C0EC200B704700BFF0EC0201F0EC021130
:10298C00F0EC0221F0EC0231F0EC0241F0EC0251DF
:10299C00F0EC0261F0EC0271F0EC0281F0EC0291CF
:1029AC00F0EC02A1F0EC02B1F0EC02C1F0EC02D1BF
:1029BC00F0EC02E1F0EC02F1704700BFE0EC020138
:1029CC00E0EC0211E0EC0221E0EC0231E0EC02411F
:1029DC00E0EC0251E0EC0261E0EC0271E0EC02810F
:1029EC00E0EC0291E0EC02A1E0EC02B1E0EC02C1FF
:1029FC00E0EC02D1E0EC02E1E0EC02F1704700BF48
:102A0C00B0FC0181B0FC0191B0FC01A1B0FC01B1A2
:102A1C00704700BFA0FC0181A0FC0191A0FC01A1AA
:102A2C00A0FC01B1704700BFEC4600B52DE9005089
:102A3C002DE9FF1F4FF000032DE90C0001A902F056
:102A4C0013FEDDF840E012B0704700BFEC4600B555
:102A5C002DE900502DE9FF1F4FF000032DE90C006C
:102A6C0001A902F041FEDDF840E012B0704700BF52
:102A7C00EC4600B52DE900502DE9FF1F4FF0000387
:102A8C002DE90C0001A902F051FEDDF840E012B076
:102A9C00704700BFEC4600B52DE900502DE9FF1F33
:102AAC004FF000032DE90C0001AB02F011FEDDF834
:102ABC0040E012B0704700BFEC4600B52DE9005065
:102ACC002DE9FF1F4FF000032DE90C0001AA02F0C5
:102ADC0087FEDDF840E012B0704700BF0348044B9E
:102AEC00834202D0034B03B11847704760000020AB
:102AFC0060000020000000000548064B1B1AD90F8F
:102B0C0001EBA301491002D0034B03B118477047E6
:102B1C0060000020600000200000000010B5064C92
:102B2C00237843B9FFF7DAFF044B13B10448AFF332
:102B3C0000800123237010BD600000200000000005
:102B4C00E461000808B5054B1BB105490548AFF316
:102B5C000080BDE80840FFF7CFBF00BF00000000B9
:102B6C0064000020E4610008002303E01E22C2542C
:102B7C000133DBB2072B09D80A78C3F1070C42FAF0
:102B8C000CF212F0010FF1D03C22F0E7704738B58F
:102B9C0005460C460131FFF7E7FF214605F1080019
:102BAC00FFF7E2FFA11C05F11000FFF7DDFF38BDB8
:102BBC0000231A4605E031F813C0624492B2013387
:102BCC00DBB28342F7D302EB4200C00080B2704705
:102BDC0031F81010090A0448415C01FB032202EB96
:102BEC004202D00080B27047FC61000800231A46F4
:102BFC0006E0816831F813100A4492B20133DBB25B
:102C0C0081888B42F5D302EB4200C00080B2704742
:102C1C0010B4846834F811C04FEA1C2C094C14F819
:102C2C000CC08088814205D2624506D2634506D22B
:102C3C00002000E0012010BC70470120FBE70120C0
:102C4C00F9E700BFFC61000810B50446806802F08B
:102C5C0053FA206802F050FA204602F04DFA10BDEB
:102C6C002DE9F0470446884617461D46FFF7D0FF6E
:102C7C00814610B14846BDE8F087D4F808A051460B
:102C8C004046FFF795FF06462B463A4651464046CE
:102C9C00FFF79EFF2368304408A91844FFF777FF1D
:102CAC00E8E710B50468FFF7A1FF02461E21204695
:102CBC0002F01AFB10BDF8B506460F460C2002F0C8
:102CCC0013FA054686800221304602F0CBFAA86042
:102CDC007200394602F0FAF900231A4605E037F87B
:102CEC001340224492B20133DBB2B342F7D302EB6E
:102CFC004204E400A4B23234A4B20121204602F012
:102D0C00B1FA2860323C32220021204402F0ECFA65
:102D1C002846FFF7C6FF2846F8BD10B50468FFF734
:102D2C0065FF0146204600F031FD10BD70B506462A
:102D3C00012402E004EB84046400B6FBF4F3092BD9
:102D4C00F8D8B6FBF4F20A4DA5FB0213DB0803EB33
:102D5C008303A2EB4303DBB203F13000C0B200F0FB
:102D6C001FFB2346A5FB0445EC08092BE9D870BDD5
:102D7C00CDCCCCCC10B5041E03DB2046FFF7D6FF20
:102D8C0010BD2D2000F00CFB6442F6E738B505466B
:102D9C00082912D80C4602E0373000F001FB74B160
:102DAC00013CE4B2A00025FA00F000F00F00092865
:102DBC00F2DC303000F0F4FAF1E70824EFE738BD2C
:102DCC0010B504460078A0F12003DBB25E2B0ED9BF
:102DDC000D280FD00A2814D05C2000F0E1FA7820DE
:102DEC0000F0DEFA02212078FFF7D0FF10BD00F0D2
:102DFC00D7FAFBE75C2000F0D3FA722000F0D0FA8F
:102E0C00F4E75C2000F0CCFA6E2000F0C9FAEDE794
:102E1C0010B5044620B906E02046FFF7D1FF013477
:102E2C002378002BF8D110BD064B186000225A6095
:102E3C001A615A619A61DA611A625A629A60DA60AE
:102E4C00704700BF8000002010B50D2000F0A8FADC
:102E5C000A2000F0A5FA1A48FFF7DAFF0D2000F05F
:102E6C009FFA0A2000F09CFA164C6069FFF782FF6B
:102E7C001548FFF7CDFFA069FFF77CFF1348FFF75C
:102E8C00C7FFE069FFF776FF1148FFF7C1FF0D2080
:102E9C0000F086FA0A2000F083FAA3695BB90D48AA
:102EAC00FFF7B6FF0D2000F07BFA0A2000F078FA4D
:102EBC00044B986910BD0848FFF7AAFFF2E700BF62
:102ECC002062000880000020186200080C620008D4
:102EDC0000620008486200083862000810B5044619
:102EEC000948FFF795FF601CFFF720FF0748FFF725
:102EFC008FFF074B9868FFF719FF0D2000F050FA71
:102F0C000A2000F04DFA10BD4C6200085C6200080B
:102F1C007401002048B108B50B460146184602F072
:102F2C00BDF9003818BF012008BD01207047000012
:102F3C0008B50146024BD868FFF7ECFF08BD00BF8F
:102F4C007401002008B50146024B1869FFF7E2FF37
:102F5C0008BD00BF74010020014B00221A607047AD
:102F6C004801002009E0013B064A1360064A52F86A
:102F7C00331002EBC30253680B60024B1B68002B2F
:102F8C00F1DC7047480100204C010020F8B57C4B67
:102F9C0000221A605A601A61DA6001229A6090422B
:102FAC0000F0E88006460F46154676E07548FFF7B8
:102FBC002FFF0D2000F0F4F90A2000F0F1F90D209C
:102FCC0000F0EEF90A2000F0EBF96F48FFF720FF54
:102FDC000D2000F0E5F90A2000F0E2F90D2000F0D8
:102FEC00DFF90A2000F0DCF96848FFF711FF0D202B
:102FFC0000F0D6F90A2000F0D3F96548FFF708FF76
:10300C000D2000F0CDF90A2000F0CAF96148FFF755
:10301C00FFFE0D2000F0C4F90A2000F0C1F95E4853
:10302C00FFF7F6FE0D2000F0BBF90A2000F0B8F90E
:10303C005A48FFF7EDFE0D2000F0B2F90A2000F01F
:10304C00AFF95748FFF7E4FE0D2000F0A9F90A206C
:10305C0000F0A6F95348FFF7DBFE0D2000F0A0F9B5
:10306C000A2000F09DF90D2000F09AF90A2000F0DA
:10307C0097F94D48FFF7CCFE0D2000F091F90A208E
:10308C0000F08EF90120F8BD48492046FFF746FCB8
:10309C0000BB3B4B01225A601544B54268DA57F825
:1030AC00254043492046FFF739FC00283FF47EAF0A
:1030BC0040492046FFF732FC00283FF477AF3E49E9
:1030CC002046FFF72BFC0028DED12D4B01221A6085
:1030DC001544E2E739492046FFF720FC40B96B1C48
:1030EC009E4249DD57F82320254B1A610235D4E75F
:1030FC0033492046FFF712FC40B96B1C9E423DDD64
:10310C0057F823201E4BDA600235C6E72D492046BE
:10311C00FFF704FC40BB1A4B02229A606B1C9E42C8
:10312C0024DD07EB830457F823201278303AD2B20F
:10313C00092A01D91D46B0E70022114B9A600BE019
:10314C000F498B6803EB83035B008B602068805C0A
:10315C00303803448B60013223689B5C303BDBB21C
:10316C00092BEDD9023598E7013596E71D4694E712
:10317C00002088E7002086E7012084E7012082E711
:10318C00740100207462000894620008C462000894
:10319C00D46200081C63000864630008A86300087C
:1031AC00EC63000820640008486400089064000880
:1031BC00646200086C6200088C6400089464000867
:1031CC00986400089C64000870B50D461646FFF71D
:1031DC00DDFEE0B9002405E00A2000F0E1F8FFF77D
:1031EC0033FE01340A4B9B68A3420ED92868FFF7C3
:1031FC001BFE2046FFF772FEB047054B1B68002BE9
:10320C00EAD10D2000F0CCF8E6E7024B986970BDCE
:10321C00740100208000002008B5184B5B6A93B93C
:10322C00164B1B6AF3B9164B1B68B3B11548FFF765
:10323C00EFFD1548FFF7ECFD0D2000F0B1F80A206A
:10324C0000F0AEF809E00D4AD3690133D3610D20CB
:10325C0000F0A6F80A2000F0A3F8084B00221A622E
:10326C005A6208BD054A9369013393610D2000F041
:10327C0097F80A2000F094F8EFE700BF80000020D8
:10328C0074010020A06400084062000810B584B0EE
:10329C000190029103921C460798FFF749FE002803
:1032AC002AD00698FFF74EFE30B31B4B089A1A60D3
:1032BC005C60099A1A61194B1B68FBB9174B5B6868
:1032CC001BB3154C636901336361FFF745FE04F1D1
:1032DC002800FFF715FB18B9019B9847029B9847EC
:1032EC000F48FFF70DFB08B9039B98470C48FFF7F5
:1032FC0007FB70B1FFF790FF04B010BD2046FFF73D
:10330C0087FD054B00225A60DBE72E2000F048F8C1
:10331C00D7E7FFF727FEEDE78000002074010020BF
:10332C00A800002082B00A4B9A6942F020029A61F0
:10333C009A6902F020020092009A9A6942F0040203
:10334C009A619B6903F004030193019B02B07047DF
:10335C000010024008B500F0D7F808BD00B583B0E6
:10336C000A4B5A6942F001025A615B6903F001038E
:10337C000193019B002211460F2001F029FE0F2022
:10338C0001F036FE03B05DF804FB00BF00100240F4
:10339C0008B50021014800F01DFE08BDCC0100203D
:1033AC0000B583B08DF80700642301220DF10701ED
:1033BC00024800F077FF03B05DF804FB1402002014
:1033CC004FF0FF30704701207047FEE772B6FEE702
:1033DC0000B58BB0002308930993019302930393D8
:1033EC00049305930693079315484FF080420260AF
:1033FC00436083605922C2600361836100F0DCFB8F
:10340C00C0B900230893099308A90D4800F058FE91
:10341C0090B960230193002202920392059201A9B4
:10342C00074800F023FC48B9054800F025FA0BB01A
:10343C005DF804FBFFF7CAFFFFF7C8FFFFF7C6FFF5
:10344C00CC01002008B50A480A4B03604FF4E13365
:10345C00436000238360C36003610C22426183617B
:10346C00C36100F0EFFE00B908BDFFF7AFFF00BF6E
:10347C00140200200038014000B591B02822002130
:10348C0006A801F031FF00230193029303930493E8
:10349C000593012206924FF4803307930A9202227D
:1034AC000D920E934FF4E0130F9306A800F0BAFFA1
:1034BC0080B90F23019302210291002303934FF44F
:1034CC0080620492059301A801F0DEF920B911B0D5
:1034DC005DF804FBFFF77AFFFFF778FF08B500F003
:1034EC0067FFFFF7C9FFFFF71DFFFFF737FFFFF778
:1034FC006FFFFFF7A7FF034A00210846FFF764FEA2
:10350C0008BD00BF6133000808B500F0B7F800F043
:10351C00D7F800F0F7F800F017F908BD034B00E0FE
:10352C0013465A1E002BFBD1704700BF80C3C90144
:10353C0000B583B04023ADF8043001A90120FFF79A
:10354C00BAFB024B186003B05DF804FB5C02002070
:10355C0008B5024B1868FFF777FB08BD5C0200202A
:10356C0008B5034B1868FFF7D8FBFFF7D7FF08BD6A
:10357C005C02002030B585B001238DF80C3000259D
:10358C008DF80D508DF80E5012E0039AADF8002016
:10359C00120C8DF802202B46224600210A480068A6
:1035AC00FFF75EFB0134E4B2072CEED90135EDB226
:1035BC00072D01D80024F7E7034B1868FFF7ADFB84
:1035CC00FFF7ACFF05B030BD5C02002030B585B014
:1035DC0000258DF80C5001238DF80D308DF80E5010
:1035EC0012E0039AADF80020120C8DF802202B4645
:1035FC00224600210A480068FFF732FB0134E4B28E
:10360C00072CEED90135EDB2072D01D80024F7E7D0
:10361C00034B1868FFF781FBFFF780FF05B030BD47
:10362C005C02002030B585B000258DF80C508DF86B
:10363C000D5001238DF80E3012E0039AADF80020E6
:10364C00120C8DF802202B46224600210A480068F5
:10365C00FFF706FB0134E4B2072CEED90135EDB2CD
:10366C00072D01D80024F7E7034B1868FFF755FB2B
:10367C00FFF754FF05B030BD5C02002000B585B0EB
:10368C0024230393074B0293074B0193074B00939F
:10369C00074B084A08490948FFF7F8FD05B05DF8E3
:1036AC0004FB00BFD0640008086500081C65000816
:1036BC00A46400085D3500086D3500083D35000830
:1036CC0000B585B02A230393074B0293074B019354
:1036DC00074B0093074B084A08490948FFF7D6FDEA
:1036EC0005B05DF804FB00BFD06400085865000805
:1036FC001C650008306500085D3500088135000840
:10370C003D35000800B585B03B230393074B02936E
:10371C00074B0193074B0093074B084A084909488C
:10372C00FFF7B4FD05B05DF804FB00BFD0640008E2
:10373C00946500081C650008686500085D35000884
:10374C00D93500083D35000800B585B04C230393EE
:10375C00074B0293074B0193074B0093074B084A07
:10376C0008490948FFF792FD05B05DF804FB00BF5E
:10377C00D0640008D46500081C650008A865000822
:10378C005D350008313600083D35000808B50246A5
:10379C000B4600210248006800F0E6FA08BD00BFA5
:1037AC0000000020FEE7FEE7FEE7FEE7FEE77047BD
:1037BC007047704708B500F00DFE08BD08B502480B
:1037CC0001F01EFB08BD00BF8801002082B00E4B2B
:1037DC009A6942F001029A619A6902F00102009220
:1037EC00009ADA6942F08052DA61DB6903F08053A7
:1037FC000193019B054A536823F0E06343F0007387
:10380C00536002B0704700BF00100240000001403E
:10381C000368B3F1804F00D0704710B582B00446F6
:10382C0003F50433DA6942F00102DA61DB6903F073
:10383C0001030193019B0E480E4B03601023436060
:10384C00002383608022C2604FF480720261436166
:10385C0083614FF40053C36101F016FA20B9044B95
:10386C0063625C6202B010BDFFF7B0FDF7E700BF0A
:10387C00880100205800024000B587B00023029355
:10388C000393049305930368B3F1804F02D007B000
:10389C005DF804FB03F504339A6942F004029A6163
:1038AC009B6903F004030193019B01230293022300
:1038BC0003930323059302A9014801F0C1F8E6E73D
:1038CC000008014010B586B00023029303930493C3
:1038DC0005930268174B9A4201D006B010BD03F550
:1038EC0058439A6942F480429A619A6902F4804280
:1038FC000092009A9A6942F004029A619B6903F063
:10390C0004030193019B4FF400730293022303936E
:10391C0003230593084C02A9204601F091F84FF4BB
:10392C008063029300230393049302A9204601F0C1
:10393C0087F8D2E7003801400008014030B4026A31
:10394C00036A23F0010303624568836923F0730360
:10395C000C681C4322F002028B6813430B4A904202
:10396C0006D0456084614A684263036230BC70478C
:10397C0023F00803CA681A4322F0040325F44075A7
:10398C004A692A438D691543EBE700BF002C0140BF
:10399C0030B4036A026A22F4807202624468C2691B
:1039AC0022F073020D68154323F400738A6843EA0E
:1039BC0002230D4A904206D04460C5614A68C26336
:1039CC00036230BC704723F40063CA6843EA0223E5
:1039DC0023F4806324F440544A6944EA02148A694B
:1039EC0044EA0214E8E700BF002C014030B4036A3B
:1039FC00026A22F4805202624468C26922F4E642EE
:103A0C000D6842EA052223F400538D6843EA05331E
:103A1C00074DA84206D04460C2614A680264036242
:103A2C0030BC704724F480444D6944EA8514F2E7B5
:103A3C00002C014010B5446A636A83420ED0A36A1D
:103A4C00834214D0E36A83421AD0236B834220D082
:103A5C002046FFF79DFC0023237710BD012323771D
:103A6C008369002BF4D1012384F83E30F0E7022364
:103A7C0023778369002BEBD1012384F83F30E7E7F0
:103A8C00042323778369002BE2D1012384F840308F
:103A9C00DEE7082323778369002BD9D1012384F82F
:103AAC004130D5E7704710B5446A636A83420BD046
:103ABC00A36A834210D0E36A834210D0236B834203
:103ACC0004D10823237701E0012323772046FFF755
:103ADC00E9FF0023237710BD02232377F6E70423A5
:103AEC002377F3E7704710B5446A636A83420CD0BE
:103AFC00A36A834213D0E36A834216D0236B8342BA
:103B0C0019D0012384F83D3003E00123237784F896
:103B1C003E302046FFF7E6FF0023237710BD02233B
:103B2C002377012384F83F30F3E704232377012321
:103B3C0084F84030EDE708232377012384F84130E3
:103B4C00E7E7000003681B4A90420AD0B0F1804FAF
:103B5C0007D0A2F59432904203D002F580629042D5
:103B6C0003D123F070034A681343124A90420AD0DF
:103B7C00B0F1804F07D0A2F59432904203D002F5F9
:103B8C008062904203D123F44073CA68134323F03C
:103B9C0080034A69134303608B68C3620B688362BA
:103BAC00044B984202D00123436170470B690363B5
:103BBC00F9E700BF002C014040B310B5044690F863
:103BCC003D30F3B1022384F83D30214651F8040B0B
:103BDC00FFF7B8FF012384F8463084F83E3084F8B0
:103BEC003F3084F8403084F8413084F8423084F817
:103BFC00433084F8443084F8453084F83D3000205C
:103C0C0010BD80F83C30FFF703FEDBE70120704766
:103C1C0030B4036A026A22F01002026244688269BC
:103C2C0022F4E6420D6842EA052223F020038D6857
:103C3C0043EA05130C4DA84206D0446082614A68E1
:103C4C008263036230BC704723F08003CD6843EA83
:103C5C00051323F0400324F440644D6944EA8504C1
:103C6C008D6944EA8504E8E7002C014038B590F8EA
:103C7C003C30012B66D004460D46012380F83C30C5
:103C8C000C2A5AD8DFE802F0075959591B595959CF
:103C9C003059595944000068FFF750FE2268936967
:103CAC0043F0080393612268936923F00403936142
:103CBC002268936929690B43936100203EE00068F8
:103CCC00FFF7A6FF2268936943F4006393612268AF
:103CDC00936923F48063936122689369296943EAA9
:103CEC0001239361002029E00068FFF751FE226850
:103CFC00D36943F00803D3612268D36923F004032A
:103D0C00D3612268D36929690B43D361002015E084
:103D1C000068FFF76BFE2268D36943F40063D3613C
:103D2C002268D36923F48063D3612268D36929693B
:103D3C0043EA0123D361002000E00120002384F832
:103D4C003C3038BD0220FCE701F01F014FF0010CA4
:103D5C000CFA01FC036A23EA0C030362036A8A402F
:103D6C00134303627047000070B5044616460D46B7
:103D7C0000295AD190F83E00C0B2022814BF00208E
:103D8C000120002840F00A81002D6AD194F83E20D1
:103D9C00D2B2012A14BF00220122002A00F00081B5
:103DAC00002E00F0FF80002B00F0FE80002D74D15F
:103DBC00022284F83E20626A82499162626A8249D8
:103DCC00D162626A81491163226834323146606A79
:103DDC0000F08EFF002840F0EB802268D36843F49B
:103DEC000073D360012229462068FFF7ADFF2368DA
:103DFC00774A934200F0C2802368754A934200F0E0
:103E0C00C280B3F1804F00F0BE80A2F59432934291
:103E1C0000F0B98002F58062934200F0B4801A6819
:103E2C0042F001021A600020BBE0042909D00829E5
:103E3C000FD090F84100C0B2022814BF002001201E
:103E4C009FE790F83F00C0B2022814BF0020012069
:103E5C0097E790F84000C0B2022814BF0020012060
:103E6C008FE7042D09D0082D0FD094F84120D2B241
:103E7C00012A14BF002201228FE794F83F20D2B20E
:103E8C00012A14BF0022012287E794F84020D2B205
:103E9C00012A14BF002201227FE7042D24D0082D13
:103EAC003CD0022284F841200C2D7FD801A252F87C
:103EBC0025F000BFC33D0008B93F0008B93F00081A
:103ECC00B93F0008FB3E0008B93F0008B93F0008A5
:103EDC00B93F00082F3F0008B93F0008B93F000860
:103EEC00B93F00085D3F0008022284F83F20A26A17
:103EFC0034499162A26A3449D162A26A334911638E
:103F0C00226838323146A06A00F0F2FE002851D106
:103F1C002268D36843F48063D36063E7022284F899
:103F2C004020E26A27499162E26A2749D162E26A3B
:103F3C002649116322683C323146E06A00F0D8FE13
:103F4C00002839D12268D36843F40063D36049E771
:103F5C00226B1C499162226B1B49D162226B1B495B
:103F6C001163226840323146206B00F0C1FE28BB41
:103F7C002268D36843F48053D36033E75A6C42F41D
:103F8C0000425A6438E79A6802F00702062A17D0F2
:103F9C001A6842F001021A60002002E0022000E0E0
:103FAC00012070BD0120FCE70120FAE70120F8E7B1
:103FBC000120F6E70120F4E70120F2E70120F0E709
:103FCC000020EEE7413A0008B33A0008F33A000843
:103FDC00002C014038B504460D460C296CD8DFE89E
:103FEC0001F0076B6B6B2E6B6B6B376B6B6B400065
:103FFC000268D36823F40073D360406A00F0B4FE07
:10400C00002229462068FFF79FFE23682B4A934223
:10401C0030D02368196A41F21112114208D1196A81
:10402C0040F24442114203D11A6822F001021A6094
:10403C00002D2ED1012384F83E3000203DE0026893
:10404C00D36823F48063D360806A00F08DFED7E7D9
:10405C000268D36823F40063D360C06A00F084FE66
:10406C00CEE70268D36823F48053D360006B00F072
:10407C007BFEC5E7196A41F211121142C9D1196AC6
:10408C0040F244421142C4D15A6C22F400425A64A8
:10409C00BFE7042D06D0082D09D0012384F8413048
:1040AC0000200AE0012384F83F30002005E00123C2
:1040BC0084F84030002000E0012038BD002C014085
:1040CC0090F83C20012A2CD010B40346012280F831
:1040DC003C20022280F83D2002685068946820F051
:1040EC00700C086840EA0C0050601A680E48824256
:1040FC000AD0B2F1804F07D0A0F59430824203D0A1
:10410C0000F58060824204D124F080044968214388
:10411C009160012283F83D20002083F83C0010BC04
:10412C0070470220704700BF002C014010B50446B8
:10413C000268136923F44053C1680B43136183680D
:10414C000269134342691A430168CB6823F4B053E4
:10415C0023F00C031343CB600268536923F44073C0
:10416C0081690B4353610268134B9A4220D000F0D3
:10417C0047FC024602EB820202EB820263689B0060
:10418C00B2FBF3F20D48A0FB02314909642303FB97
:10419C0011231B013233A0FB03035B0903F0F00274
:1041AC0002EB011203F00F03216813448B6010BD66
:1041BC0000F036FC0246DDE7003801401F85EB516C
:1041CC002DE9F84305460F4616469946DDF8208042
:1041DC002B681C6837EA04040CBF01240024B44289
:1041EC002DD1B8F1FF3FF3D0B8F1000F05D000F09E
:1041FC00FDF8A0EB09004045EAD92A6802F10C034E
:10420C0053E8003F23F4D0730C3242E8003100290C
:10421C00F3D12A6802F1140353E8003F23F00103A1
:10422C00143242E800310029F3D1202385F84130C3
:10423C0085F84230002385F84030032000E0002050
:10424C00BDE8F88360B310B5044690F8413013B361
:10425C00242384F841302268D36823F40053D360BC
:10426C002046FFF763FF2268136923F49043136120
:10427C002268536923F02A0353612268D36843F4FC
:10428C000053D36000206064202384F8413084F80C
:10429C004230606310BD80F84030FFF713FBD7E766
:1042AC00012070472DE9F04182B01E4690F8413054
:1042BC00DBB2202B4BD104460D46904600294AD048
:1042CC000AB9012044E000234364212380F84130E3
:1042DC0000F08CF80746A4F82480A4F82680A36884
:1042EC00B3F5805F02D04FF000080FE02369FBB1FB
:1042FC004FF000080AE038F8023B2268C3F30803C9
:10430C005360E28C92B2013A92B2E284E38C9BB29B
:10431C008BB100963B46002280212046FFF750FFD0
:10432C00D8B9002DE7D015F8012B23685A60E8E7BF
:10433C00A8460025EAE700963B460022402120468D
:10434C00FFF73EFF58B9202384F8413000E00220EB
:10435C0002B0BDE8F0810120FAE70320F8E7032062
:10436C00F6E7000010B504460E4B1A784FF47A733A
:10437C00B3FBF2F30C4A1068B0FBF3F000F046FE0E
:10438C0068B90F2C01D901200AE0002221464FF018
:10439C00FF3000F01DFE054B1C60002000E00120EA
:1043AC0010BD00BF040000200C00002008000020FD
:1043BC0008B5074A136843F010031360032000F09C
:1043CC00F5FD0F20FFF7CEFFFFF700FA002008BD28
:1043DC0000200240034A1168034B1B780B44136006
:1043EC00704700BF6002002004000020014B1868D9
:1043FC00704700BF6002002082B0084B1B68084A5F
:10440C00A2FB03235B0A00FB03F3019300BF019B98
:10441C005A1E0192002BF9D102B070470C000020FB
:10442C00D34D6210002800F0F18170B582B00446C3
:10443C00036813F0010F2CD0994B5B6803F00C034D
:10444C00042B1DD0964B5B6803F00C03082B12D089
:10445C006368B3F5803F41D0002B55D103F1804305
:10446C0003F504331A6822F480321A601A6822F4B5
:10447C0080221A6037E08A4B5B6813F4803FE7D0E8
:10448C00874B1B6813F4003F03D06368002B00F0CC
:10449C00BF81236813F0020F75D0814B5B6813F05A
:1044AC000C0F5FD07E4B5B6803F00C03082B54D0D1
:1044BC002369002B00F08A807A4B01221A60FFF7E7
:1044CC0095FF0546764B1B6813F0020F75D1FFF76D
:1044DC008DFF401B0228F5D903209EE1704A13681A
:1044EC0043F480331360636843B3FFF77FFF0546E3
:1044FC006B4B1B6813F4003FCBD1FFF777FF401BCE
:10450C006428F5D9032088E1B3F5A02F09D0644BBA
:10451C001A6822F480321A601A6822F480221A6017
:10452C00E1E703F18043A3F53C331A6842F480229F
:10453C001A601A6842F480321A60D4E7FFF756FF0B
:10454C000546574B1B6813F4003FA2D0FFF74EFFF4
:10455C00401B6428F5D903205FE1514B5B6813F4D1
:10456C00803FA5D14E4B1B6813F0020F03D023697B
:10457C00012B40F04F814A4A136823F0F80361691C
:10458C0043EAC1031360236813F0080F33D0A36907
:10459C00002B5CD0434B0122C3F88024FFF726FF8D
:1045AC0005463F4B5B6A13F0020F21D1FFF71EFF4C
:1045BC00401B0228F5D903202FE1394A136823F058
:1045CC00F803616943EAC1031360DCE7354B002251
:1045DC001A60FFF70BFF0546314B1B6813F0020FF7
:1045EC00D1D0FFF703FF401B0228F5D9032014E1BB
:1045FC000120FFF701FF236813F0040F00F09680F1
:10460C00274BDB6913F0805F34D1254BDA6942F01C
:10461C008052DA61DB6903F080530193019B012521
:10462C00214B1B6813F4807F26D0E368012B3DD00F
:10463C00002B53D103F1804303F504331A6A22F0A3
:10464C0001021A621A6A22F004021A6233E0154B54
:10465C000022C3F88024FFF7C9FE0546104B5B6AA5
:10466C0013F0020FC7D0FFF7C1FE401B0228F5D98B
:10467C000320D2E00025D3E70B4A136843F4807380
:10468C001360FFF7B3FE0646074B1B6813F4807FDD
:10469C00CBD1FFF7ABFE801B6428F5D90320BCE01F
:1046AC000010024000004242007000405F4A136A52
:1046BC0043F001031362E36833B3FFF797FE06463A
:1046CC005A4B1B6A13F0020F2FD1FFF78FFE801B82
:1046DC0041F288339842F3D903209EE0052B09D090
:1046EC00524B1A6A22F001021A621A6A22F0040270
:1046FC001A62E0E74D4B1A6A42F004021A621A6A17
:10470C0042F001021A62D6E7FFF770FE0646474BED
:10471C001B6A13F0020F08D0FFF768FE801B41F2F2
:10472C0088339842F3D9032077E0E5B9E369002B8D
:10473C0072D03E4A526802F00C02082A56D0022B64
:10474C0017D03B4B00221A66FFF750FE0446374B3E
:10475C001B6813F0007F47D0FFF748FE001B0228B0
:10476C00F5D9032059E0314AD36923F08053D36142
:10477C00DCE72F4B00221A66FFF738FE05462B4B61
:10478C001B6813F0007F06D0FFF730FE401B022899
:10479C00F5D9032041E0236AB3F5803F1AD02349B1
:1047AC004B6823F47413226A606A024313434B6010
:1047BC001F4B01221A66FFF719FE04461B4B1B68A0
:1047CC0013F0007F0ED1FFF711FE001B0228F5D964
:1047DC00032022E0154A536823F40033A1680B43ED
:1047EC005360DCE7002018E0002016E0012B16D007
:1047FC000E4B5B6803F48031226A914211D103F4B1
:10480C007013626A93420ED1002006E001207047BB
:10481C00012002E0012000E0002002B070BD012068
:10482C00FBE70120F9E70120F7E700BF0010024089
:10483C00000042420F4B5B6803F00C02082A01D0C7
:10484C000D487047C3F383420C49885C13F4803FD6
:10485C000BD0084B5B68C3F34043094AD35C064A50
:10486C0002FB00F0B0FBF3F07047064B03FB00F0CB
:10487C00704700BF0010024000127A00E865000883
:10488C00E465000800093D00002800F0A08070B528
:10489C000D460446524B1B6803F007038B420BD2A8
:1048AC004F4A136823F007030B431360136803F09C
:1048BC0007038B4240F08D80236813F0020F17D052
:1048CC0013F0040F04D0474A536843F4E063536079
:1048DC00236813F0080F04D0424A536843F4605322
:1048EC005360404A536823F0F003A1680B435360B4
:1048FC00236813F0010F31D06368012B20D0022BF9
:10490C0025D0384A126812F0020F64D035494A6833
:10491C0022F0030213434B60FFF768FD0646314B50
:10492C005B6803F00C036268B3EB820F16D0FFF7E1
:10493C005DFD801B41F288339842F0D9032045E09D
:10494C00284A126812F4003FE0D101203EE0254ACB
:10495C00126812F0007FD9D1012037E0204B1B6880
:10496C0003F00703AB420AD91D4A136823F007036F
:10497C002B431360136803F00703AB422DD123685C
:10498C0013F0040F06D0174A536823F4E063E16870
:10499C000B435360236813F0080F07D0114A536878
:1049AC0023F46053216943EAC1035360FFF742FFCC
:1049BC000C4B5B68C3F303130B4AD35CD8400B4B13
:1049CC0018600B4B1868FFF7CDFC002070BD012060
:1049DC0070470120FAE70120F8E70120F6E700BF55
:1049EC000020024000100240006600080C0000206D
:1049FC0008000020014B1868704700BF0C00002015
:104A0C0008B5FFF7F7FF044B5B68C3F30223034AB7
:104A1C00D35CD84008BD00BF00100240F865000808
:104A2C0008B5FFF7E7FF044B5B68C3F3C223034AE7
:104A3C00D35CD84008BD00BF00100240F8650008E8
:104A4C0070B582B00024A446A1E07E4DAB4214D0D8
:104A5C000CD8A5F58015AB420FD005F57025AB42EF
:104A6C000BD0A5F58015AB4210D106E0764DAB42CC
:104A7C0003D005F58035AB4208D18B68002B50D0A4
:104A8C00012B49D04261082400E0CC68BEF1FF0F35
:104A9C0049D806464FEA8C0233680F25954023EA25
:104AAC00050304FA02F2134333604B6813F0805F82
:104ABC006BD0664B9A6942F001029A619B6903F0D4
:104ACC0001030193019B4FEA9C02951C604B53F828
:104ADC0025600CF00305AD000F23AB4026EA03065E
:104AEC005C4B984226D003F58063984200F08C8092
:104AFC0003F58063984200F0898003F58063984247
:104B0C0016D0042317E0CC680434BFE7CC68083413
:104B1C00BCE7CC680C34B9E702610824B6E7002482
:104B2C00B4E70424B2E7061DACF108029200B3E727
:104B3C00032300E00023AB4033430232444D45F8DD
:104B4C0022304B6813F4801F62D0434A936843EAC7
:104B5C000E0393604B6813F4001F5FD03E4AD3687A
:104B6C0043EA0E03D3604B6813F4003F5CD03A4A1F
:104B7C00536843EA0E0353604B6813F4803F59D0DB
:104B8C00354A136843EA0E0313600CF1010C0B68F1
:104B9C0033FA0CF254D0012202FA0CF203EA020EA0
:104BAC0032EA0303F1D14B68122B3FF64EAF122BB6
:104BBC003FF66CAF01A555F823F000BF874A0008FB
:104BCC00974A0008194B00082B4B0008994A00081B
:104BDC00994A0008994A0008994A0008994A00081D
:104BEC00994A0008994A0008994A0008994A00080D
:104BFC00994A0008994A0008994A0008994A0008FD
:104C0C00134B00081F4B0008012394E7022392E783
:104C1C00114A936823EA0E0393609BE70E4AD3680C
:104C2C0023EA0E03D3609EE70B4A536823EA0E0374
:104C3C005360A1E7084A136823EA0E031360A4E744
:104C4C0002B070BD000022100000311000100240B4
:104C5C0000000140000801400004014030B4012470
:104C6C00056CAC40C56B6C60046863604368102BCA
:104C7C0005D0036899600368DA6030BC704703683C
:104C8C009A600368D960F8E750B310B40246016823
:104C9C00144B0B441448A0FB03031B099B00136427
:104CAC00124BD363022382F8213008686FF30D1086
:104CBC00536894682343D468234314692343546989
:104CCC00234394692343D469234303430B6000209B
:104CDC009063012382F8213082F8200010BC7047C9
:104CEC0001207047F8FFFDBFCDCCCCCC00000240BA
:104CFC0038B5044690F82000012832D0012084F801
:104D0C00200094F82100C0B2012804D0002384F8BC
:104D1C002030022038BD022084F821000020A0633E
:104D2C002568286820F0010028602046FFF796FFD0
:104D3C00E36A5BB12268136843F00E0313602268C8
:104D4C00136843F0010313600020E3E72268136843
:104D5C0023F0040313602268136843F00A03136002
:104D6C00EDE70220D6E7000008B590F82130DBB261
:104D7C00022B03D004238363012008BD026813684F
:104D8C0023F00E0313600268136823F00103136011
:104D9C000368194A934214D0143293421FD0143230
:104DAC0093421ED0143293421ED0143293421ED022
:104DBC001432934202D04FF0807203E04FF4801211
:104DCC0000E001220D4B5A60012380F821300023B2
:104DDC0080F82030436B6BB198470020CDE7102250
:104DEC00F0E74FF48072EDE74FF48052EAE74FF4AE
:104DFC008032E7E70020C0E70800024000000240D4
:104E0C0038B5C36B1A6804682568016C04238B40A1
:104E1C00134235D015F0040F32D0236813F0200F55
:104E2C0003D1236823F0040323600368434A9342AD
:104E3C0014D01432934218D01432934217D0143237
:104E4C00934217D01432934217D01432934202D0AB
:104E5C004FF0806203E04FF4800200E00422384BF4
:104E6C005A60C36A03B1984738BD4022F7E74FF444
:104E7C008062F4E74FF48042F1E74FF48022EEE7D2
:104E8C0002238B4013423CD015F0020F39D023681B
:104E9C0013F0200F06D1236823F00A0323600123AB
:104EAC0080F821300368254A934214D0143293427F
:104EBC001CD0143293421BD0143293421BD01432A8
:104ECC0093421BD01432934202D04FF0007203E095
:104EDC004FF4001200E00222194B5A60002380F8B4
:104EEC002030836A002BBFD09847BDE72022F3E720
:104EFC004FF40072F0E74FF40052EDE74FF400323C
:104F0C00EAE708238B401342AED015F0080FABD064
:104F1C00236823F00E032360026CC16B012303FA98
:104F2C0002F24A60836380F82130002380F820303D
:104F3C00036B002B98D0984796E700BF08000240FF
:104F4C0000000240002808DB0901C9B200F16040F2
:104F5C0000F5614080F80013704700F00F00090164
:104F6C00C9B2014B1954704714ED00E000B500F0C4
:104F7C000700C0F1070CBCF1040F28BF4FF0040C64
:104F8C00031D062B0FD9C31E4FF0FF3E0EFA0CF07B
:104F9C0021EA000199400EFA03FE22EA0E0241EAD0
:104FAC0002005DF804FB0023EEE70000074AD3681B
:104FBC0023F4E0631B041B0C000200F4E0600343C9
:104FCC0043F0BF6343F40033D360704700ED00E05F
:104FDC0010B50446054BD868C0F30220FFF7C6FF96
:104FEC0001462046FFF7AEFF10BD00BF00ED00E00C
:104FFC00002807DB00F01F02400901239340024AFE
:10500C0042F82030704700BF00E100E00138B0F1F9
:10501C00807F0BD24FF0E0235861054AF02182F8D3
:10502C0023100020986107221A61704701207047F5
:10503C0000ED00E070470000FFF7FCFF0B480C4947
:10504C000C4A002302E0D458C4500433C4188C42D8
:10505C00F9D3094A094C002301E013600432A2423F
:10506C00FBD300F00FF8FEF739FA70470000002070
:10507C0060000020A866000860000020B00300203B
:10508C00FEE7000070B500260C4D0D4C641BA410FF
:10509C00A64209D101F0A0F800260A4D0A4C641B67
:1050AC00A410A64205D170BD55F8043B98470136B3
:1050BC00EEE755F8043B98470136F2E7A066000886
:1050CC00A0660008A0660008A46600080A44914285
:1050DC0000F1FF3300D1704710B511F8014B91422C
:1050EC0003F8014FF9D110BD024B0146186800F0CE
:1050FC002DB800BF10000020024B0146186800F0CC
:10510C00FBB800BF1000002070B50F4E0C46316884
:10511C00054611B900F0D8F830602146284600F059
:10512C00D3F8431C03D14FF0FF34204670BDC41C90
:10513C0024F00304A042F8D0211A284600F0C4F849
:10514C000130F2D1EFE700BF640200202DE9F843F3
:10515C00CD1C25F0030508350C2D38BF0C25002D72
:10516C00064601DBA94204D90C2333600020BDE8BC
:10517C00F883DFF8D48000F069F8D8F800301C46CA
:10518C0044BB29463046FFF7BFFF431C044658D1A9
:10519C00D8F800402746002F43D1002C4BD0236871
:1051AC003946304604EB030900F08EF8814542D1B4
:1051BC00216830466D1A2946FFF7A6FF01303AD018
:1051CC0023682B442360D8F800305A6862BBC8F8B7
:1051DC0000700FE02268521B20D40B2A17D96119DA
:1051EC00A342256018BF5960636808BFC8F8001057
:1051FC0062514B60304600F02FF804F10B00231D78
:10520C0020F00700C21A1CBF1B1AA350AFE762683C
:10521C00A3420CBFC8F800205A60EBE72346646831
:10522C00AEE73C467F68B6E71A465B68A342FBD103
:10523C0000235360DEE70C233046336000F00CF89B
:10524C0094E70560D6E700BF68020020014800F033
:10525C009BB800BFA4030020014800F096B800BF23
:10526C00A4030020024B0A460146186800F002B85D
:10527C001000002070B5A1FB025434B92946FFF789
:10528C0065FF064628B9304670BD0C220026026028
:10529C00F9E72A46214600F027F8F4E70A7870B5BA
:1052AC006AB970BD9A4209D10C46054614F8013F03
:1052BC00002BF6D015F8016F9E42F7D00130037821
:1052CC00002BEFD11846ECE738B50023054D04460A
:1052DC0008462B6000F05AF8431C02D12B6803B12E
:1052EC00236038BDA803002003460244934200D13A
:1052FC00704703F8011BF9E738B50546002940D083
:10530C0051F8043C0C1F002BB8BFE418FFF79EFFAC
:10531C001C4A136833B9636014602846BDE83840F2
:10532C00FFF79ABFA34208D9206821188B4201BF0E
:10533C0019685B6809182160EDE71A465B680BB1C8
:10534C00A342FAD911685018A0420BD1206801442D
:10535C00501883421160E0D118685B6808441060F3
:10536C005360DAE702D90C232B60D6E720682118AA
:10537C008B4201BF19685B68091821606360546037
:10538C00CBE738BD6802002070477047044A0549D6
:10539C001368002B08BF0B46184410601846704762
:1053AC00AC030020B003002003685A004CBF43F04C
:1053BC00004323F000431844704700BF2DE9F04729
:1053CC0041B301F1FF380546164647460024E11962
:1053DC0001EBD171491005EBC10A5046FFF7E4FF10
:1053EC00884503464FEAC1090ED009F10800B342C3
:1053FC0028440BD8FFF7D8FF0138B04201F1010463
:10540C00E5D35046BDE8F087B042FAD98C4201D0C2
:10541C004F1EDCE74FF0000A5046BDE8F08700BF96
:10542C00012809D0022805D0044B00280CBF1846CF
:10543C00002070470248704702487047155B00080F
:10544C00255B00081D5B000830B5224B044683B079
:10545C008D1E3BB3284601A9AFF30080E8B101993A
:10546C002A46FFF7ABFF0146B8B1FFF79DFF4B682B
:10547C00A064012B2BD0002B26DB081DFFF794FF1B
:10548C00002323650368E064002B12DBFFF78CFF1D
:10549C0003460020236103B030BD002309202361A3
:1054AC0003B030BD0C4B0D491846C91AC9100191F7
:1054BC00D6E7C3F30360FFF7B3FF031E0CBF09204D
:1054CC000020236103B030BD0123081DD9E7002360
:1054DC000520DFE70000000010660008A066000849
:1054EC00036810B5DA07044606D49B0700F1500098
:1054FC0009D5FDF731FA2368590709D51A070ED5D6
:10550C00DB0613D510BDFDF71FFA23685907F5D438
:10551C0004F1D800FDF728FA23681A07F0D404F533
:10552C00AC70FDF729FA2368DB06EBD404F5EC70BC
:10553C00BDE81040FDF764BA0346006800B118449A
:10554C00704700BF704700BF70B504460E4620463A
:10555C00316CFFF779FF054698B9D6F840C0324652
:10556C00214601202369C4F814C098470828EED0BE
:10557C00072806D12846316CFFF7E4FF301DFDF7F4
:10558C00D7F900F0DDFD00BF2DE9F0474FF0000A20
:10559C00ADF5767D0DF10C0E01F1040CC768D0F859
:1055AC00188006461446BCE80F00AEE80F00BCE8B5
:1055BC000F00AEE80F00BCE80F00AEE80F009CE84F
:1055CC000F0002AD8EE80F00C5F800A021E02B6C97
:1055DC004FF4F472294673617CA8FFF777FD3146CE
:1055EC00504633697CAA98478A9C8246AC64012059
:1055FC00334632464946CDE90058B847044630BBDD
:10560C004FF4F47228467CA9FFF760FDBAF1080F3D
:10561C001AD13046296CFFF717FF04F109095FFA1C
:10562C0089FA04460028D2D0A96B3346A9643246C5
:10563C000120CDE900584AF01001B84738B920468E
:10564C000DF5767DBDE8F087BAF1070F05D009247A
:10565C0020460DF5767DBDE8F0872046296CFFF7D6
:10566C0071FF03A8FDF764F9F0B54FF0FF37CB6B72
:10567C00FBB00B6401AC01F1040C0E460546BCE812
:10568C000F000FC4BCE80F000FC4BCE80F000FC420
:10569C009CE80F0084E80F00009706E06A46294654
:1056AC002B6998470828044608D128461099FFF71B
:1056BC00CBFE0028F2D009207BB0F0BD6846FFF786
:1056CC000FFF062CF7D131462846FFF73DFF00BFF0
:1056DC0010B414468461DC6BC16000221C64194652
:1056EC0010BCFFF751BF00BF70B54369C6680B64AF
:1056FC00AEB90A46036904460D4601460220984796
:10570C00072805D008280FD129462046FFF71CFF93
:10571C003046296CFFF716FF281DFDF709F9012209
:10572C00FFF732FF00F00CFD00F00AFDC26832B149
:10573C00D1F83CC00022C1F840C0FFF725BFFFF7ED
:10574C0093BF00BF052915D8DFE801F00A03140345
:10575C00030501207047436C009A002013607047CA
:10576C0043B90F2A06D800EB82025368009A002036
:10577C001360704702207047002300B585B00A46BD
:10578C0003A900911946FFF7DDFF039805B05DF8FA
:10579C0004FB00BF052915D8DFE801F00A03140348
:1057AC00030501207047009B1B6843640020704771
:1057BC0043B90F2A06D8009B00EB82021B6800201D
:1057CC005360704702207047002310B584B003ACBF
:1057DC00039200940A461946FFF7DCFF04B010BD93
:1057EC0070B54FF0FF36D36BADF5107D13640DF132
:1057FC005C0E02F1040C05460C46BCE80F00AEE84A
:10580C000F00BCE80F00AEE80F00BCE80F00AEE8DC
:10581C000F009CE80F008EE80F00169612E00C218A
:10582C0016A86A46FFF7D0FF214616A8A84778B9F4
:10583C0069460820049B16AA98470528064608D0F6
:10584C00092805D068462699FFF7FEFD0028E6D00A
:10585C00092616A8FFF744FE30460DF5107D70BDE5
:10586C002DE9F04F1646CA6C0D4652F8041B89B050
:10587C0000F0030C0692002B79D002240F0C8DF84B
:10588C001D700904FFB2059102EB8702296DBCF172
:10589C00020F08BFAA6B11F001088DF81C4009D04B
:1058AC00304605A900F0CEFA002856D1082009B0E0
:1058BC00BDE8F08F1768002FF2D0E3469A4600F04F
:1058CC000801CDE90118BAF1020F4CD017885488A1
:1058DC0002F10409AA6C24F001030F21304603EBFA
:1058EC000208FFF749FF80453BD827F0010202EB85
:1058FC000803834294BF00230123640004F00204D4
:10590C0007F001072743012F4ED0022F35D027BBBC
:10591C00BBF1000F02D0002B40F0D48009F104023F
:10592C001768002FCFD1304605A9DDF8088000F0AC
:10593C0089FA90B9B8F1000FB8D00F213046FFF7B3
:10594C001BFF0E2102463046FFF73EFF0F2130466B
:10595C006C4AFFF739FF072000E0092009B0BDE8C9
:10596C00F08F0023C9E7546802F10809B2E7090275
:10597C00032405918DF81D3088E7D9F8004024F0F8
:10598C000048BBF1000F47D12BB1019B002B5CD021
:10599C00B8F1000F59D0002C01DA09F1040908F113
:1059AC00010209EB8202BBE7BBF1000F1CD1C3B1B2
:1059BC00D9F80430D9F80020991C4FEAD272CCD017
:1059CC0005F158040133049400F08F8009F10400B0
:1059DC00FFF7B2FD04AB01462846AFF30080002868
:1059EC0059D109F108029BE70D213046FFF7C4FE9F
:1059FC002C6A8442F5D1AB6A9945F2D14846FFF73F
:105A0C00D3FC0F2102463046FFF7DEFE2A4600216A
:105A1C003046FFF7D9FE9EE70D213046FFF7ACFE6E
:105A2C002F6A8742B7D1AB6A9945B4D100240423BD
:105A3C00C5E90B434B44C5F828806B63D9F800309B
:105A4C00A34259DB01230293A9E705F15803CDF8D2
:105A5C000CB00024B34609F104071E460BE038468F
:105A6C000496FFF769FD0022014604AB2846AFF30C
:105A7C000080043700BB444504F10104EFD10D2133
:105A8C005846FFF779FE0246049B0620C5E9082319
:105A9C00C5F8289062E704460D213046FFF76CFEEE
:105AAC00049E022C08BFEE62286208BF05F12C068A
:105ABC000620C5E9096951E75E46D9F80040DDF8D2
:105ACC000CB068E74846FFF76FFC09F10402044686
:105ADC00AA632846AFF3008000283FF43EAF22466D
:105AEC000F213046FFF770FE35E730460D21FFF7EA
:105AFC0043FE26462862DBE708F1010209EB82002F
:105B0C007DE700BF000000000023FFF7A9BE00BF27
:105B1C000123FFF7A5BE00BF0223FFF7A1BE00BF04
:105B2C002DE9F04105461446C4B0052900F2D78092
:105B3C00DFE811F012002A00D50069009000060081
:105B4C00836B002C40F0CB8053F8042B42648363AE
:105B5C00002044B0BDE8F081002B40F0C0804FF035
:105B6C00010E816B2A1DA0B20EFA03FC1CEA000F79
:105B7C001CBF51F8046B42F823600133102BF3D196
:105B8C00A004E5D4A963E3E7012B4FEA1447A4B2C0
:105B9C0000F08580052B40F0A28007EB0408B8F1DB
:105BAC00200F00F29C800F2F40F29B80002CCFD056
:105BBC000268560700F11A81019302AE3046FCF7D9
:105BCC00D7FE4FEA440CA7F11002A86B019B0CF115
:105BDC00FF3C06EBC2020CF1010C043A00EB8C0109
:105BEC0050F8044B884242F8044FF9D1012B00F0D5
:105BFC00E0800F2FA86302D822A8FCF7ADFE304638
:105C0C00FCF7B2FEA4E7032B69D11FFA84F808EB6A
:105C1C001443102B4FEA144461D80368180700F1A1
:105C2C00C08022AE3046FCF7C9FE4FEA4801AF6B8C
:105C3C0006EBC4024B1E41B1B81A1158013B42F895
:105C4C00041B591CF9D107EBC8073046AF63FCF7AE
:105C5C0093FE7DE7002B42D1102C40D80368DE0662
:105C6C0000F1978022AE3046FCF7D4FE01270023CA
:105C7C003046A96B07FA03F2224203F1010305D067
:105C8C000A4652F804CB1146C0F800C0042B00F1B0
:105C9C000400EFD13046A963FCF7B2FE58E73A197D
:105CAC00102A1CD8102F1AD00268D00708D5284605
:105CBC0022F0030240F8502B0193FCF749FE019BA4
:105CCC0022AE30460193FCF743FEA96B019B002CDE
:105CDC0058D104313046A963FCF736FE38E7022070
:105CEC0037E7B8F1100F026865D9D10772D522F0E9
:105CFC00010242F0020240F8502B0193FCF730FEF7
:105D0C002A68019B12F0040F66D122AE3046019333
:105D1C00FCF726FE02A8FCF72BFEC7F1100252007E
:105D2C00A96B019B541EA8F1100C06EBC7020134A1
:105D3C00043A01EB840051F8044B814242F8044FC1
:105D4C00F9D1BCF1000F59D0102F3A4638BF1022B0
:105D5C004FEA4C0C02AE103A0CF1FF3C06EBC202BF
:105D6C0039E7284622F0010242F0020240F8502B9B
:105D7C0022AE0193FCF7F4FD3046FCF7F1FDA96B64
:105D8C0024B3019B64004FF0000C013C06EBC702EE
:105D9C00CDE723F01003036000F5EC70FCF73AFE3E
:105DAC0060E723F008032B6005F5AC70FCF706FEEA
:105DBC0037E722AE8DE7D107D3D422AE304601931C
:105DCC00FCF7CEFDA96B019B002CDBD13046FCF718
:105DDC00C3FDBDE6540798D5284622F0040240F8CE
:105DEC00D82B0193FCF7C4FD019B8EE722F0040233
:105DFC0040F8D82B0193FCF7BBFDDEE6012B3FF4FA
:105E0C0068AF0F2FA9633FF6A3AEDFE7027A034614
:105E1C007AB9427AA2B14FF0030C4168013A42724E
:105E2C0008680A1D5A60020283F808C0000E1A6046
:105E3C0070470068013A1A7202021A60000E70472D
:105E4C00B02070472DE9F0434FF0000806460D4690
:105E5C0085B02846FFF7DAFFB028044600F012811F
:105E6C0007065CD500F0F003A02B1AD030D8802B9D
:105E7C0000F08380902B27D100F00D030D2B23D045
:105E8C00002302AF194600F00F0200973046FFF7CF
:105E9C0059FC00230D22194630460097FFF77AFC77
:105EAC00D7E7C3434FF47F6203F007031A4101079E
:105EBC0002F47F6201D542F4804200233046194639
:105ECC00FFF72EFE0028C4D0092005B0BDE8F083F2
:105EDC00B02B69D0C02B3ED1C62800F0BF80C7289C
:105EEC0000F0D58000F0F803C02B00F0E280C82849
:105EFC0000F0ED80C928E7D12846FFF787FF05237E
:105F0C0001210446220304F00F0402F470220C4415
:105F1C0030462243FFF704FE00289AD0D4E78300D2
:105F2C00DBB21F1D00230DF1080919460D22304666
:105F3C00CDF80090FFF706FC029B60064CBFDF1B00
:105F4C00FF1800230D2230461946CDF80090029719
:105F5C00FFF720FC7DE700F0F803D02BB4D100F064
:105F6C000702013205230121304642F40022FFF7DB
:105F7C00D7FD00283FF46DAFA6E72846FFF746FF94
:105F8C0024022043B0F5004F9ED000230401194693
:105F9C003046A2B2FFF7C4FD002895D114F4004F8F
:105FAC0018BF4FF0010854E7A0F1B103042B00F225
:105FBC00B380DFE803F0491D160C0300002303AA8D
:105FCC00009230460D221946FFF7BCFB41E7002337
:105FDC00052130461A46FFF7A3FD00283FF439AFE0
:105FEC0072E72846FFF712FF01230446194689E79A
:105FFC0000230DF108090D2219463046CDF800900A
:10600C00FFF7A0FB2846FFF701FF02064FF002073F
:10601C00029C0BD500F07F00B84004442846029443
:10602C00FFF7F4FE030607F10707F3D40023B8408B
:10603C0004F5017404440D2230461946CDF8009045
:10604C000294FFF7A7FB04E72846FFF7DFFE431E89
:10605C00DBB20E2B02467FF630AF35E72846FFF752
:10606C00D5FE04460323220304F00F0402F470222D
:10607C000134194630462243FFF752FD00283FF405
:10608C00E8AE21E7B8F1000F36D000201DE7284616
:10609C00FFF7BCFE431EDBB20E2B02463FF614AFDD
:1060AC00002304213046FFF73BFD00283FF4D1AE1E
:1060BC000AE7032300F00F0201323046194642F47E
:1060CC002022FFF72DFD00283FF4C3AEFCE6284646
:1060DC00FFF79CFE0246012102F0F00402F00F02D1
:1060EC0010340A440523304642EA0432FFF718FD07
:1060FC0000283FF4AEAEE7E602AC434641460E2222
:10610C0030460094FFF71EFB0F22434641463046B3
:10611C000094FFF73FFBB8E700F0FC03B42B3FF40F
:10612C00D3AE012300F007021A443046194642F45C
:10613C000022FFF7F5FC00283FF48BAEC4E600BF4D
:10614C00062008B500F02CF80120FDF73EF91F29B8
:10615C0038B505460C4604D9162303604FF0FF30C2
:10616C0038BDC26B12B152F821304BB9284600F041
:10617C0031F8224601462846BDE8384000F018B8F0
:10618C00012B0AD0591C03D1162303600120E7E729
:10619C000021204642F8241098470020E0E7000038
:1061AC00024B01461868FFF7D2BF00BF1000002059
:1061BC0038B50023064D0446084611462B60FDF702
:1061CC00FFF8431C02D12B6803B1236038BD00BF1C
:1061DC00A8030020FDF7F7B8F8B500BFF8BC08BC61
:1061EC009E467047F8B500BFF8BC08BC9E46704789
:1061FC00081000002049676E6F7265642000000073
:10620C00204661696C7572657320000020546573BB
:10621C00747320002D2D2D2D2D2D2D2D2D2D2D2D4F
:10622C002D2D2D2D2D2D2D2D2D2D2D004641494C57
:10623C000000000050415353000000004F4B000081
:10624C00556E69747920746573742072756E2000B4
:10625C00206F6620000000002D6800000000000088
:10626C002D2D68656C70000052756E732061207363
:10627C006572696573206F6620756E69742074652C
:10628C007374732E000000005768656E206E6F20CB
:10629C00666C6167206973207370656369666965F4
:1062AC00642C20616C6C207465737473206172654E
:1062BC002072756E2E0000004F7074696F6E616CE9
:1062CC0020666C6167733A0020202D7620202020F8
:1062DC00202020202020566572626F7365206F7518
:1062EC00747075743A2073686F7720616C6C2074CD
:1062FC006573747320657865637574656420657661
:10630C00656E20696620746865792070617373000E
:10631C0020202D7320202020202020202020536995
:10632C006C656E74206D6F64653A206D696E696D75
:10633C00616C206F75747075742073686F77696EFB
:10634C0067206F6E6C792074657374206661696C5C
:10635C00757265730000000020202D67204E414DA2
:10636C004520202020204F6E6C792072756E207491
:10637C006573747320696E2067726F757073207407
:10638C0068617420636F6E7461696E207468652037
:10639C00737472696E67204E414D450020202D6E3E
:1063AC00204E414D4520202020204F6E6C792072CC
:1063BC00756E2074657374732077686F7365206EC7
:1063CC00616D6520636F6E7461696E7320746865AE
:1063DC0020737472696E67204E414D4500000000B9
:1063EC0020202D72204E554D4245522020205265C2
:1063FC007065617465646C792072756E20616C6C6B
:10640C00207465737473204E554D42455220746947
:10641C006D65730020202D682C202D2D68656C7007
:10642C002020446973706C617920746869732068EA
:10643C00656C70206D657373616765004D6F726577
:10644C0020696E666F726D6174696F6E2061626F28
:10645C00757420556E6974793A2068747470733A47
:10646C002F2F7777772E7468726F777468657377D0
:10647C00697463682E6F72672F756E69747900008A
:10648C002D7600002D7300002D6700002D6E00008E
:10649C002D7200002000000054455354286C656494
:1064AC005F70616E656C735F6472697665722C20C7
:1064BC0073686F775F636C6561725F70616E656C3A
:1064CC002900000054657374732F746172676574CE
:1064DC005F74657374732F6C65645F70616E656C4B
:1064EC00735F6472697665722F6C65645F70616E40
:1064FC00656C735F746573742E63000073686F77DB
:10650C005F636C6561725F70616E656C00000000AA
:10651C006C65645F70616E656C735F6472697665DF
:10652C007200000054455354286C65645F70616EB2
:10653C00656C735F6472697665722C2073686F7713
:10654C005F7265645F70616E656C290073686F774C
:10655C005F7265645F70616E656C000054455354E6
:10656C00286C65645F70616E656C735F64726976CC
:10657C0065722C2073686F775F677265656E5F70EC
:10658C00616E656C2900000073686F775F677265D8
:10659C00656E5F70616E656C00000000544553546D
:1065AC00286C65645F70616E656C735F647269768C
:1065BC0065722C2073686F775F626C75655F7061B4
:1065CC006E656C290000000073686F775F626C75F4
:1065DC00655F70616E656C000102000002030405CA
:1065EC00060708090A0B0C0D0E0F10100000000016
:1065FC00010203040000000000000000010203047B
:04660C00060708096C
:10661000FCC2FF7FB0B0B08010C3FF7F010000005C
:1066200034EEFF7FB0A90280C4EEFF7FB0B0A88037
:1066300014EFFF7F010000001CEFFF7FB0B0AA80C5
:1066400054EFFF7FAE75B2802CF0FF7FAB3F3A80F6
:106650008CF0FF7F010000009CF0FF7FB0B0AA80AB
:10666000D8F0FF7F0100000084F1FF7FAA0FB28005
:10667000FCF1FF7FB0AF08809CF4FF7F01000000B9
:10668000ACF4FF7FAC3F038090F7FF7F0100000078
:10669000C0F7FF7FB0AD0480B4FAFF7F01000000B7
:0466A000512B000872
:0466A400292B000896
:1066A800CC01002001000000100000000024F400CC
:1066B80014000020000000006C020020D40200201A
:1066C8003C03002000000000000000000000000063
:1066D80000000000000000000000000000000000B2
:1066E80000000000000000000000000000000000A2
:1066F8000000000000000000000000000000000092
:04000005080050455A
:00000001FF
