:020000040800F2
:10280000005000208D410008F52B0008F72B000830
:10281000F92B0008FB2B0008FD2B0008000000002E
:10282000000000000000000000000000FF2B000876
:10283000012C000800000000032C0008052C0008F3
:10284000D5410008D5410008D5410008D541000810
:10285000D5410008D5410008D5410008D541000800
:10286000D5410008D5410008D5410008D5410008F0
:10287000D5410008D5410008D54100080D2C0008BD
:10288000D5410008D5410008D5410008D5410008D0
:10289000D5410008D5410008D5410008D5410008C0
:1028A000D5410008D5410008D5410008D5410008B0
:1028B000D5410008D5410008D5410008D5410008A0
:1028C000D5410008D5410008D5410008D541000890
:1028D000D5410008D5410008D5410008D541000880
:1028E000D5410008D5410008D5410008000000008E
:1028F00000000000000000000000000000000000D8
:0C29000000000000000000005FF808F17B
:10290C000348044B834202D0034B03B11847704772
:10291C000C0000200C000020000000000548064BB5
:10292C001B1AD90F01EBA301491002D0034B03B1C1
:10293C00184770470C0000200C000020000000001D
:10294C0010B5064C237843B9FFF7DAFF044B13B1EB
:10295C000448AFF300800123237010BD0C0000204D
:10296C00000000003042000808B5054B1BB10549BA
:10297C000548AFF30080BDE80840FFF7CFBF00BFAC
:10298C0000000000100000203042000882B00A4B0A
:10299C009A6942F020029A619A6902F02002009230
:1029AC00009A9A6942F004029A619B6903F004034D
:1029BC000193019B02B070470010024000B583B038
:1029CC000A4B5A6942F001025A615B6903F0010338
:1029DC000193019B002211460F2001F09DFB0F205B
:1029EC0001F0AAFB03B05DF804FB00BF001002402D
:1029FC0000B591F800E091F801C08978002303E05C
:102A0C001E22C2540133DBB2072B08D8C3F10702D4
:102A1C004CFA02F212F0010FF2D03C22F1E7002343
:102A2C0007E04FF01E0C03F1080200F802C001335E
:102A3C00DBB2072B09D8C3F107024EFA02F212F0EF
:102A4C00010FEED04FF03C0CEDE7002307E04FF008
:102A5C001E0C03F1100200F802C00133DBB2072B8D
:102A6C0009D8C3F1070241FA02F212F0010FEED0BD
:102A7C004FF03C0CEDE75DF804FB000008B50021BD
:102A8C00014800F08DFC08BD6007002072B6FEE71F
:102A9C0000B58BB000230893099301930293039321
:102AAC00049305930693079315484FF080420260F8
:102ABC00436083605922C2600361836100F062FA53
:102ACC00C0B900230893099308A90D4800F0DEFC57
:102ADC0090B960230193002202920392059201A9FE
:102AEC00074800F0A9FA48B9054800F0E7F80BB020
:102AFC005DF804FBFFF7CAFFFFF7C8FFFFF7C6FF3F
:102B0C006007002000B591B02822002106A801F032
:102B1C0081FB0023019302930393049305930122F9
:102B2C0006924FF4803307930A9202220D920E9371
:102B3C004FF4E0130F9306A800F03EFD80B90F236D
:102B4C00019302210291002303934FF480620492BB
:102B5C00059301A800F062FF20B911B05DF804FBE9
:102B6C00FFF794FFFFF792FF10B500F0EBFCFFF7B7
:102B7C00C9FFFFF70BFFFFF721FFFFF789FF0023CA
:102B8C000AE0154803EB430142180A24445400217F
:102B9C00517091700133DBB23F2BF2D900240AE063
:102BAC0004EB4402D3000C4911440C481844FFF7C1
:102BBC001FFF0134E4B23F2CF2D9094C3222002120
:102BCC00204601F027FB40F23263A4F5C0620021DD
:102BDC00044800F0AFFAFEE75C0600202800002055
:102BEC002806002060070020FEE7FEE7FEE7FEE770
:102BFC00FEE770477047704708B500F0B5FC08BD9C
:102C0C0008B5024801F0A0F908BD00BF1C07002060
:102C1C0082B00E4B9A6942F001029A619A6902F0F5
:102C2C0001020092009ADA6942F08052DA61DB69A3
:102C3C0003F080530193019B054A536823F0E06332
:102C4C0043F00073536002B0704700BF00100240A5
:102C5C00000001400368B3F1804F00D0704710B5FD
:102C6C0082B0044603F50433DA6942F00102DA61FA
:102C7C00DB6903F001030193019B0E480E4B0360CB
:102C8C0010234360002383608022C2604FF4807263
:102C9C000261436183614FF40053C36101F098F802
:102CAC0020B9044B63625C6202B010BDFFF7EEFE0C
:102CBC00F7E700BF1C0700205800024000B587B0A2
:102CCC00002302930393049305930368B3F1804F9D
:102CDC0002D007B05DF804FB03F504339A6942F0A7
:102CEC0004029A619B6903F004030193019B012385
:102CFC000293022303930323059302A9014800F0D6
:102D0C0043FFE6E70008014030B4026A036A23F08F
:102D1C00010303624568836923F073030C681C4349
:102D2C0022F002028B6813430B4A904206D0456096
:102D3C0084614A684263036230BC704723F0080325
:102D4C00CA681A4322F0040325F440754A692A43E1
:102D5C008D691543EBE700BF002C014030B4036ACA
:102D6C00026A22F4807202624468C26922F0730221
:102D7C000D68154323F400738A6843EA02230D4A55
:102D8C00904206D04460C5614A68C263036230BC9D
:102D9C00704723F40063CA6843EA022323F4806378
:102DAC0024F440544A6944EA02148A6944EA02143D
:102DBC00E8E700BF002C014030B4036A026A22F439
:102DCC00805202624468C26922F4E6420D6842EA0B
:102DDC00052223F400538D6843EA0533074DA842BE
:102DEC0006D04460C2614A680264036230BC70471A
:102DFC0024F480444D6944EA8514F2E7002C014028
:102E0C0010B5446A636A83420ED0A36A834214D01D
:102E1C00E36A83421AD0236B834220D02046FFF70B
:102E2C002DFE0023237710BD012323778369002B0C
:102E3C00F4D1012384F83E30F0E702232377836931
:102E4C00002BEBD1012384F83F30E7E704232377F1
:102E5C008369002BE2D1012384F84030DEE708239C
:102E6C0023778369002BD9D1012384F84130D5E72E
:102E7C00704710B5446A636A83420BD0A36A8342DD
:102E8C0010D0E36A834210D0236B834204D1082311
:102E9C00237701E0012323772046FFF7E9FF002386
:102EAC00237710BD02232377F6E704232377F3E778
:102EBC00704710B5446A636A83420CD0A36A83429C
:102ECC0013D0E36A834216D0236B834219D00123BB
:102EDC0084F83D3003E00123237784F83E3020460C
:102EEC00FFF7E6FF0023237710BD0223237701238E
:102EFC0084F83F30F3E704232377012384F8403030
:102F0C00EDE708232377012384F84130E7E700003D
:102F1C0003681B4A90420AD0B0F1804F07D0A2F54B
:102F2C009432904203D002F58062904203D123F098
:102F3C0070034A681343124A90420AD0B0F1804F92
:102F4C0007D0A2F59432904203D002F580629042F1
:102F5C0003D123F44073CA68134323F080034A69F6
:102F6C00134303608B68C3620B688362044B984203
:102F7C0002D00123436170470B690363F9E700BF7B
:102F8C00002C014040B310B5044690F83D30F3B12D
:102F9C00022384F83D30214651F8040BFFF7B8FFAB
:102FAC00012384F8463084F83E3084F83F3084F8AE
:102FBC00403084F8413084F8423084F8433084F84F
:102FCC00443084F8453084F83D30002010BD80F842
:102FDC003C30FFF73FFEDBE70120704730B4036A5B
:102FEC00026A22F0100202624468826922F4E6420C
:102FFC000D6842EA052223F020038D6843EA05138D
:10300C000C4DA84206D0446082614A688263036218
:10301C0030BC704723F08003CD6843EA051323F0DE
:10302C00400324F440644D6944EA85048D6944EA04
:10303C008504E8E7002C014038B590F83C30012BB2
:10304C0066D004460D46012380F83C300C2A5AD831
:10305C00DFE802F0075959591B5959593059595938
:10306C0044000068FFF750FE2268936943F00803A0
:10307C0093612268936923F0040393612268936936
:10308C0029690B43936100203EE00068FFF7A6FF1F
:10309C002268936943F4006393612268936923F473
:1030AC008063936122689369296943EA01239361E0
:1030BC00002029E00068FFF751FE2268D36943F035
:1030CC000803D3612268D36923F00403D361226817
:1030DC00D36929690B43D361002015E00068FFF721
:1030EC006BFE2268D36943F40063D3612268D36911
:1030FC0023F48063D3612268D369296943EA0123ED
:10310C00D361002000E00120002384F83C3038BD5E
:10311C000220FCE701F01F014FF0010C0CFA01FC3E
:10312C00036A23EA0C030362036A8A4013430362B3
:10313C007047000070B5044616460D4600295AD15A
:10314C0090F83E00C0B2022814BF002001200028D5
:10315C0040F00A81002D6AD194F83E20D2B2012AA7
:10316C0014BF00220122002A00F00081002E00F082
:10317C00FF80002B00F0FE80002D74D1022284F819
:10318C003E20626A82499162626A8249D162626AB5
:10319C0081491163226834323146606A00F04CFE7A
:1031AC00002840F0EB802268D36843F40073D360AE
:1031BC00012229462068FFF7ADFF2368774A934226
:1031CC0000F0C2802368754A934200F0C280B3F1CC
:1031DC00804F00F0BE80A2F59432934200F0B9808B
:1031EC0002F58062934200F0B4801A6842F001024A
:1031FC001A600020BBE0042909D008290FD090F8F0
:10320C004100C0B2022814BF002001209FE790F8B3
:10321C003F00C0B2022814BF0020012097E790F8AD
:10322C004000C0B2022814BF002001208FE7042DFB
:10323C0009D0082D0FD094F84120D2B2012A14BF26
:10324C00002201228FE794F83F20D2B2012A14BF4A
:10325C000022012287E794F84020D2B2012A14BF41
:10326C00002201227FE7042D24D0082D3CD002221D
:10327C0084F841200C2D7FD801A252F825F000BF14
:10328C008F3100088533000885330008853300082A
:10329C00C7320008853300088533000885330008E1
:1032AC00FB3200088533000885330008853300089D
:1032BC0029330008022284F83F20A26A3449916223
:1032CC00A26A3449D162A26A334911632268383246
:1032DC003146A06A00F0B0FD002851D12268D368B5
:1032EC0043F48063D36063E7022284F84020E26AEF
:1032FC0027499162E26A2749D162E26A2649116341
:10330C0022683C323146E06A00F096FD002839D143
:10331C002268D36843F40063D36049E7226B1C49ED
:10332C009162226B1B49D162226B1B49116322688B
:10333C0040323146206B00F07FFD28BB2268D368F9
:10334C0043F48053D36033E75A6C42F400425A641E
:10335C0038E79A6802F00702062A17D01A6842F07A
:10336C0001021A60002002E0022000E0012070BD82
:10337C000120FCE70120FAE70120F8E70120F6E73D
:10338C000120F4E70120F2E70120F0E70020EEE74E
:10339C000D2E00087F2E0008BF2E0008002C0140C7
:1033AC0038B504460D460C296CD8DFE801F0076BE4
:1033BC006B6B2E6B6B6B376B6B6B40000268D3685F
:1033CC0023F40073D360406A00F072FD002229469A
:1033DC002068FFF79FFE23682B4A934230D0236866
:1033EC00196A41F21112114208D1196A40F2444291
:1033FC00114203D11A6822F001021A60002D2ED15D
:10340C00012384F83E3000203DE00268D36823F4A9
:10341C008063D360806A00F04BFDD7E70268D36805
:10342C0023F40063D360C06A00F042FDCEE702686B
:10343C00D36823F48053D360006B00F039FDC5E7EB
:10344C00196A41F211121142C9D1196A40F244426F
:10345C001142C4D15A6C22F400425A64BFE7042DC5
:10346C0006D0082D09D0012384F8413000200AE051
:10347C00012384F83F30002005E0012384F840301C
:10348C00002000E0012038BD002C014090F83C20C9
:10349C00012A2CD010B40346012280F83C200222D1
:1034AC0080F83D2002685068946820F0700C086821
:1034BC0040EA0C0050601A680E4882420AD0B2F101
:1034CC00804F07D0A0F59430824203D000F5806085
:1034DC00824204D124F08004496821439160012286
:1034EC0083F83D20002083F83C0010BC704702207C
:1034FC00704700BF002C014010B504460E4B1A78E3
:10350C004FF47A73B3FBF2F30C4A1068B0FBF3F090
:10351C0000F020FE68B90F2C01D901200AE000222E
:10352C0021464FF0FF3000F0F7FD054B1C600020EA
:10353C0000E0012010BD00BF0000002008000020AA
:10354C000400002008B5074A136843F01003136009
:10355C00032000F0CFFD0F20FFF7CEFFFFF758FB45
:10356C00002008BD00200240034A1168034B1B7861
:10357C000B441360704700BFA80700200000002018
:10358C00014B1868704700BFA807002082B0084B99
:10359C001B68084AA2FB03235B0A00FB03F301939D
:1035AC0000BF019B5A1E0192002BF9D102B070474B
:1035BC0008000020D34D6210002800F0F18170B596
:1035CC0082B00446036813F0010F2CD0994B5B6852
:1035DC0003F00C03042B1DD0964B5B6803F00C031B
:1035EC00082B12D06368B3F5803F41D0002B55D126
:1035FC0003F1804303F504331A6822F480321A6015
:10360C001A6822F480221A6037E08A4B5B6813F444
:10361C00803FE7D0874B1B6813F4003F03D06368EF
:10362C00002B00F0BF81236813F0020F75D0814B83
:10363C005B6813F00C0F5FD07E4B5B6803F00C03E0
:10364C00082B54D02369002B00F08A807A4B01227E
:10365C001A60FFF795FF0546764B1B6813F0020FB7
:10366C0075D1FFF78DFF401B0228F5D903209EE191
:10367C00704A136843F480331360636843B3FFF7F5
:10368C007FFF05466B4B1B6813F4003FCBD1FFF754
:10369C0077FF401B6428F5D9032088E1B3F5A02FF0
:1036AC0009D0644B1A6822F480321A601A6822F42A
:1036BC0080221A60E1E703F18043A3F53C331A68DA
:1036CC0042F480221A601A6842F480321A60D4E7FD
:1036DC00FFF756FF0546574B1B6813F4003FA2D06B
:1036EC00FFF74EFF401B6428F5D903205FE1514BD7
:1036FC005B6813F4803FA5D14E4B1B6813F0020F8F
:10370C0003D02369012B40F04F814A4A136823F000
:10371C00F803616943EAC1031360236813F0080FCF
:10372C0033D0A369002B5CD0434B0122C3F8802417
:10373C00FFF726FF05463F4B5B6A13F0020F21D1C2
:10374C00FFF71EFF401B0228F5D903202FE1394A51
:10375C00136823F0F803616943EAC1031360DCE7E3
:10376C00354B00221A60FFF70BFF0546314B1B68E7
:10377C0013F0020FD1D0FFF703FF401B0228F5D93D
:10378C00032014E10120FFF701FF236813F0040F5D
:10379C0000F09680274BDB6913F0805F34D1254B0A
:1037AC00DA6942F08052DA61DB6903F080530193ED
:1037BC00019B0125214B1B6813F4807F26D0E36805
:1037CC00012B3DD0002B53D103F1804303F504337F
:1037DC001A6A22F001021A621A6A22F004021A62B0
:1037EC0033E0154B0022C3F88024FFF7C9FE0546D1
:1037FC00104B5B6A13F0020FC7D0FFF7C1FE401BE2
:10380C000228F5D90320D2E00025D3E70B4A136830
:10381C0043F480731360FFF7B3FE0646074B1B6837
:10382C0013F4807FCBD1FFF7ABFE801B6428F5D956
:10383C000320BCE000100240000042420070004037
:10384C005F4A136A43F001031362E36833B3FFF773
:10385C0097FE06465A4B1B6A13F0020F2FD1FFF747
:10386C008FFE801B41F288339842F3D903209EE0EF
:10387C00052B09D0524B1A6A22F001021A621A6AFD
:10388C0022F004021A62E0E74D4B1A6A42F004027D
:10389C001A621A6A42F001021A62D6E7FFF770FE4A
:1038AC000646474B1B6A13F0020F08D0FFF768FE61
:1038BC00801B41F288339842F3D9032077E0E5B9B5
:1038CC00E369002B72D03E4A526802F00C02082ABF
:1038DC0056D0022B17D03B4B00221A66FFF750FE36
:1038EC000446374B1B6813F0007F47D0FFF748FEA8
:1038FC00001B0228F5D9032059E0314AD36923F083
:10390C008053D361DCE72F4B00221A66FFF738FE99
:10391C0005462B4B1B6813F0007F06D0FFF730FEDB
:10392C00401B0228F5D9032041E0236AB3F5803F00
:10393C001AD023494B6823F47413226A606A024339
:10394C0013434B601F4B01221A66FFF719FE044606
:10395C001B4B1B6813F0007F0ED1FFF711FE001BF1
:10396C000228F5D9032022E0154A536823F40033CA
:10397C00A1680B435360DCE7002018E0002016E040
:10398C00012B16D00E4B5B6803F48031226A9142F6
:10399C0011D103F47013626A93420ED1002006E039
:1039AC0001207047012002E0012000E0002002B05D
:1039BC0070BD0120FBE70120F9E70120F7E700BF0C
:1039CC0000100240000042420F4B5B6803F00C02F7
:1039DC00082A01D00D487047C3F383420C49885C18
:1039EC0013F4803F0BD0084B5B68C3F34043094A88
:1039FC00D35C064A02FB00F0B0FBF3F07047064BB9
:103A0C0003FB00F0704700BF0010024000127A0068
:103A1C004C4200084842000800093D00002800F014
:103A2C00A08070B50D460446524B1B6803F007038B
:103A3C008B420BD24F4A136823F007030B431360DE
:103A4C00136803F007038B4240F08D80236813F05A
:103A5C00020F17D013F0040F04D0474A536843F4F5
:103A6C00E0635360236813F0080F04D0424A536894
:103A7C0043F460535360404A536823F0F003A16849
:103A8C000B435360236813F0010F31D06368012B93
:103A9C0020D0022B25D0384A126812F0020F64D0C5
:103AAC0035494A6822F0030213434B60FFF768FD67
:103ABC000646314B5B6803F00C036268B3EB820F74
:103ACC0016D0FFF75DFD801B41F288339842F0D988
:103ADC00032045E0284A126812F4003FE0D101208F
:103AEC003EE0254A126812F0007FD9D1012037E060
:103AFC00204B1B6803F00703AB420AD91D4A13681D
:103B0C0023F007032B431360136803F00703AB4246
:103B1C002DD1236813F0040F06D0174A536823F4F1
:103B2C00E063E1680B435360236813F0080F07D080
:103B3C00114A536823F46053216943EAC10353606B
:103B4C00FFF742FF0C4B5B68C3F303130B4AD35CC8
:103B5C00D8400B4B18600B4B1868FFF7CDFC0020BE
:103B6C0070BD012070470120FAE70120F8E7012021
:103B7C00F6E700BF00200240001002405C42000843
:103B8C00080000200400002070B582B00024A44678
:103B9C00A1E07E4DAB4214D00CD8A5F58015AB42FC
:103BAC000FD005F57025AB420BD0A5F58015AB42B7
:103BBC0010D106E0764DAB4203D005F58035AB4213
:103BCC0008D18B68002B50D0012B49D042610824BE
:103BDC0000E0CC68BEF1FF0F49D806464FEA8C02D4
:103BEC0033680F25954023EA050304FA02F21343C8
:103BFC0033604B6813F0805F6BD0664B9A6942F070
:103C0C0001029A619B6903F001030193019B4FEA46
:103C1C009C02951C604B53F825600CF00305AD001D
:103C2C000F23AB4026EA03065C4B984226D003F5E3
:103C3C008063984200F08C8003F58063984200F01A
:103C4C00898003F58063984216D0042317E0CC6872
:103C5C000434BFE7CC680834BCE7CC680C34B9E753
:103C6C0002610824B6E70024B4E70424B2E7061D79
:103C7C00ACF108029200B3E7032300E00023AB4051
:103C8C0033430232444D45F822304B6813F4801F05
:103C9C0062D0434A936843EA0E0393604B6813F473
:103CAC00001F5FD03E4AD36843EA0E03D3604B68D3
:103CBC0013F4003F5CD03A4A536843EA0E03536056
:103CCC004B6813F4803F59D0354A136843EA0E030E
:103CDC0013600CF1010C0B6833FA0CF254D0012276
:103CEC0002FA0CF203EA020E32EA0303F1D14B683A
:103CFC00122B3FF64EAF122B3FF66CAF01A555F8C9
:103D0C0023F000BFCF3B0008DF3B0008613C0008FC
:103D1C00733C0008E13B0008E13B0008E13B000874
:103D2C00E13B0008E13B0008E13B0008E13B0008F7
:103D3C00E13B0008E13B0008E13B0008E13B0008E7
:103D4C00E13B0008E13B00085B3C0008673C0008D5
:103D5C00012394E7022392E7114A936823EA0E03A6
:103D6C0093609BE70E4AD36823EA0E03D3609EE769
:103D7C000B4A536823EA0E035360A1E7084A136801
:103D8C0023EA0E031360A4E702B070BD00002210FA
:103D9C0000003110001002400000014000080140FA
:103DAC000004014030B40124056CAC40C56B6C6060
:103DBC00046863604368102B05D00368996003683E
:103DCC00DA6030BC704703689A600368D960F8E722
:103DDC0050B310B402460168144B0B441448A0FBBA
:103DEC0003031B099B001364124BD363022382F859
:103DFC00213008686FF30D10536894682343D4681E
:103E0C002343146923435469234394692343D4699A
:103E1C00234303430B6000209063012382F821307D
:103E2C0082F8200010BC704701207047F8FFFDBFDE
:103E3C00CDCCCCCC0000024038B5044690F8200024
:103E4C00012832D0012084F8200094F82100C0B25F
:103E5C00012804D0002384F82030022038BD022031
:103E6C0084F821000020A0632568286820F0010058
:103E7C0028602046FFF796FFE36A5BB1226813685F
:103E8C0043F00E0313602268136843F001031360C0
:103E9C000020E3E72268136823F004031360226810
:103EAC00136843F00A031360EDE70220D6E7000025
:103EBC0008B590F82130DBB2022B03D004238363C6
:103ECC00012008BD0268136823F00E03136002681A
:103EDC00136823F0010313600368194A934214D04A
:103EEC00143293421FD0143293421ED01432934298
:103EFC001ED0143293421ED01432934202D04FF093
:103F0C00807203E04FF4801200E001220D4B5A60E6
:103F1C00012380F82130002380F82030436B6BB1F3
:103F2C0098470020CDE71022F0E74FF48072EDE7C0
:103F3C004FF48052EAE74FF48032E7E70020C0E705
:103F4C00080002400000024038B5C36B1A680468D0
:103F5C002568016C04238B40134235D015F0040FF7
:103F6C0032D0236813F0200F03D1236823F004030D
:103F7C0023600368434A934214D01432934218D0FE
:103F8C001432934217D01432934217D01432934206
:103F9C0017D01432934202D04FF0806203E04FF4FA
:103FAC00800200E00422384B5A60C36A03B1984780
:103FBC0038BD4022F7E74FF48062F4E74FF48042BB
:103FCC00F1E74FF48022EEE702238B4013423CD002
:103FDC0015F0020F39D0236813F0200F06D1236897
:103FEC0023F00A032360012380F821300368254A5B
:103FFC00934214D0143293421CD0143293421BD0EF
:10400C00143293421BD0143293421BD0143293427D
:10401C0002D04FF0007203E04FF4001200E00222D5
:10402C00194B5A60002380F82030836A002BBFD0D4
:10403C009847BDE72022F3E74FF40072F0E74FF406
:10404C000052EDE74FF40032EAE708238B401342AD
:10405C00AED015F0080FABD0236823F00E0323600D
:10406C00026CC16B012303FA02F24A60836380F88D
:10407C002130002380F82030036B002B98D0984718
:10408C0096E700BF0800024000000240002808DB51
:10409C000901C9B200F1604000F5614080F80013DD
:1040AC00704700F00F000901C9B2014B1954704759
:1040BC0014ED00E000B500F00700C0F1070CBCF1F6
:1040CC00040F28BF4FF0040C031D062B0FD9C31E81
:1040DC004FF0FF3E0EFA0CF021EA000199400EFA67
:1040EC0003FE22EA0E0241EA02005DF804FB002303
:1040FC00EEE70000074AD36823F4E0631B041B0CB3
:10410C00000200F4E060034343F0BF6343F4003368
:10411C00D360704700ED00E010B50446054BD8683D
:10412C00C0F30220FFF7C6FF01462046FFF7AEFFA3
:10413C0010BD00BF00ED00E0002807DB00F01F02FF
:10414C00400901239340024A42F82030704700BFD7
:10415C0000E100E00138B0F1807F0BD24FF0E0239A
:10416C005861054AF02182F823100020986107223B
:10417C001A6170470120704700ED00E070470000A5
:10418C00FFF7FCFF0B480C490C4A002302E0D45803
:10419C00C4500433C4188C42F9D3094A094C002387
:1041AC0001E013600432A242FBD300F00FF8FEF7DB
:1041BC00DBFC7047000000200C000020744200085B
:1041CC000C000020AC070020FEE7000070B50026B4
:1041DC000C4D0D4C641BA410A64209D100F022F822
:1041EC0000260A4D0A4C641BA410A64205D170BDD2
:1041FC0055F8043B98470136EEE755F8043B9847D1
:10420C000136F2E76C4200086C4200086C42000870
:10421C007042000803460244934200D1704703F8F1
:10422C00011BF9E7F8B500BFF8BC08BC9E46704707
:0C423C00F8B500BFF8BC08BC9E467047F7
:104248000102000002030405060708090A0B0C0D09
:104258000E0F10100000000000000000010203040F
:044268000607080934
:04426C0075290008A8
:044270004D290008CC
:0C42740001000000100000000024F40015
:040000050800418D21
:00000001FF
